:0200000038289E
:10000800803120007F08F800911E342891122300C7
:100018001D080639031918281D360339F600760815
:10002800FA001D121D162E280130F6007608F90771
:100038000A30F6007608F0007908B023F700770850
:10004800F90023001908F6007908503E8600870158
:100058007608810079080A3A031D3428FB01FB0A57
:1000680078082000FF0009003928F901FA01FB018E
:10007800203084000030850020302024A030840007
:100088000030850018302024093084008430850031
:1000980050308600003087000D3026242000ED2BDC
:10020000003400340034013400340134003401344B
:10021000003401340034013400340134003401343A
:100220000034013400340234003402340034023427
:100230000034023400340234003402340034023416
:100240000034023400340234003402340034023406
:1002500000340234003403340034033400340334F3
:1002600000340334003403340034033400340334E2
:1002700000340434003404340034043400340434CE
:1002800000340434003404340034053400340534BC
:1002900000340534003405340034053400340634A9
:1002A0000034063400340634003406340034073495
:1002B0000034073400340734003408340034083480
:1002C00000340834003409340034093400340A346A
:1002D00000340A3400340A3400340B3400340B3454
:1002E00000340C3400340C3400340D3400340D343C
:1002F00000340E3400340F3400340F340034103422
:100300000034113400341134003412340034133406
:1003100000341434003415340034163400341734E7
:10032000003418340034193400341A3400341B34C7
:1003300000341C3400341D3400341F3400342034A5
:10034000003421340034233400342434003426347F
:10035000003428340034293400342B3400342D3454
:1003600000342F3400343134003434340034363423
:100370000034383400343B3400343D3400344034ED
:1003800000344334003446340034493400344C34AF
:1003900000344F34003453340034573400345B3469
:1003A00000345F34003463340034673400346C3418
:1003B000003470340034753400347B3400348034BD
:1003C0000034863400348C34003492340034983451
:1003D00000349F340034A6340034AD340034B534D6
:1003E0000034BD340034C5340034CE340034D73446
:1003F0000034E1340034EB340034F534003400349C
:1004000001340B34013417340134243401343034D2
:1004100001343E3401344C3401345B3401346A34E9
:1004200001347A3401348B3401349C340134AF34D8
:100430000134C2340134D6340134EA340134003496
:100440000234173402342E34023447340234613417
:1004500002347C34023498340234B5340234D43457
:100460000234F434023416340334393403345D3442
:10047000033483340334AB340334D53403340034CD
:1004800004342D3404345D3404348E340434C234E2
:100490000434F8340434303405346B340534A8346F
:1004A0000534E83405342B34063471340634BA3458
:1004B00006340634073456340734A934073400347C
:1004C00008345B340834B93408341C3409348334B8
:1004D0000934EF34093460340A34D5340A345034E2
:1004E0000B34D1340B3456340C34E2340C347434C1
:1004F0000D340D340E34AC340E3452340F34003419
:100500001034B534103473341134383412340734A1
:100510001334DF341334C0341434AB341534A13401
:100520001634A1341734AD341834C4341934E934D2
:100530001A341A341C3458341D34A5341E34003493
:1005400020346B342134E5342234713424340E34B5
:100550002634BD3427348034293456342B34413486
:100560002D3442342F345A34313489343334D13435
:10057000353433343834B0343A3449343D340034CB
:100580004034D5344234CB344534E23448341C341E
:100590004C347A344F34FF345234AC3456348234D1
:1005A0005A3484345E34B334623412346734A2343F
:1005B0006B34663470346034753492347A34003479
:1005C0008034AA34853495348B34C3349134373431
:1005D0009834F5349E34FE34A5345834AD340434A4
:1005E000B5340834BD346634C5342434CE34443490
:1005F000D734CC34E034C034EA342534F534FF3415
:10060000FF3400302000C9000030C8000030C700AF
:100610002530C6000530C635C70DC80DC90D890B7C
:100620000B2B1630C6040030C7040030C80400305D
:10063000C9040730C635C70DC80DC90D890B1A2B63
:100640005C08C6040730C635C70DC80DC90D890B37
:10065000232B5B08C6040730C635C70DC80DC90D6E
:10066000890B2C2B5A08C6044608C1004708C20053
:100670004808C3004908C4001830C436C30CC20C73
:10068000C10C890B3D2B4108162420004608C100EF
:100690004708C2004808C3004908C4001030C436E7
:1006A000C30CC20CC10C890B4F2B4108162420002F
:1006B0004608C1004708C2004808C3004908C400F2
:1006C0000830C436C30CC20CC10C890B612B410825
:1006D00016242000460816240B302000C1004108D3
:1006E000C500C51B08000314450D203E8600870188
:1006F0000108162420004535203E860087010108A8
:100700001624FF302000C1004108C507712B2000CE
:100710005208CA004A08CD0008004E08023E503E6A
:10072000860087010108CA004D08CB00CC014B08A8
:10073000C0004C08C1000630C2000030C300CF2307
:10074000200040084E07FF3E203E860087014A08F1
:1007500081000130CE02CE08031D8D2B012308003D
:10076000F3000830F1007108F400F5017308F1009E
:100770000730F136890BB92B75357104F200720818
:10078000F5000310F30D70087502031CC92B7008E7
:10079000F5020130F402031DB62B75080800200095
:1007A000C401C501401CD82B4208C4074308C53DFD
:1007B0000130C235C30D890BD92B0130C136C00CB5
:1007C000890BDE2B41084004031DD22B4508C101D3
:1007D000C1074408C001C0070800F030210099009B
:1007E0009A191A1FF02B103087232000D201D20A49
:1007F0001030872302302000CF004F08D200103085
:10080000872303302000CF004F08D2001030872309
:10081000082C423410340034EF34FF34EF34FF340A
:10082000EF34FF3455347F347F347F342000C000F0
:100830004008240091002000911D1B2C91110800FC
:10084000640080010131890B212C0034FE0012006C
:080850001E00FE0B272C0034F2
:020000040001F9
:04000E00A4F9FFDF73
:00000001FF
